:02000000FE29D7
:1000060083120313941283168715941328308312D0
:04001600940008004A
:10001A00710DF80DF90D7408F8027508031C750FB7
:10002A00F902F00DF10D0F30FC00710DF80DF90D0C
:10003A007408701C2628F8027508031C750FF9024B
:10004A002B28F80775080318750FF907F00DF10D3D
:10005A00FC0B1A28701837287408F8077508031853
:08006A00750FF9070000080002
:0E0072008312031327088A0026088200080064
:10008000831203139412831687119417223083125C
:0400900094000800D0
:10009400831203138512300893008316141854280E
:1000A400031455280310031C58284F2883123108C1
:1000B4009300831614186028031461280310031C8A
:0A00C40064285B28831285160800EB
:1000CE0083120313FB01FA01F9018030F800F10CE1
:1000DE00F00C031C7B287408F90775080318750FBC
:1000EE00FA070318FB0A0310F01F83287408FA0797
:1000FE0075080318750FFB07FB0CFA0CF90CF80CBE
:10010E00031C6E287B08F3007A08F2007908F100D0
:06011E007808F000080063
:1001240039208A110A128000840AA60A0319A70A30
:08013400F003031D92280800EE
:10013C0040200130B0002508B100B10CB113B10C56
:10014C00B113B10CB113B10CB1134A200230B00091
:10015C000F302505B1004A200330B0002208B10051
:10016C00B10CB113B10CB113B10CB113B10CB1137F
:10017C004A200430B0000F302205B1004A2008009C
:10018C00831203137008F100F0010830FC007108B1
:10019C00F40C0318D528FC0BCE28F1010034031005
:1001AC00DA28F40C0318F107F10CF00CFC0BD7282F
:0201BC00080039
:1001BE00032083161114111CE528E228D030831277
:1001CE0093008316141DEC28E828831293018316DE
:1001DE00141DF228EE2883122E0893008316141D88
:1001EE00F928F5288312220893008316141D00297E
:1001FE00FC288312250893008316141D0729032952
:0A020E001115111D0B290829080025
:10021800032083161114111C12290F29D0308312C0
:1002280093008316141D1929152983129301831627
:10023800141D1F291B299114911C23292029D13011
:10024800831293008316141D2A2926299115911DBE
:100258002E292B2991121116111E332930298312A8
:100268001308AA00AB010F302A05AE002B08AF0017
:100278000030AF052E08A8002F08A9002A08F000B2
:100288002B08F100F10CF00CF113F10CF00CF11348
:10029800F10CF00CF113F10CF00CF1130A30F4002E
:1002A8000030F50067207008A0007108A1002E0832
:1002B800F0072F080318013EF1077008A000710825
:1002C800A10070083C3CF0007108031C013EF101DC
:1002D800F1027008FF3CA0007108031C013EA10157
:1002E800A10283169115911D7A2977299112111669
:1002F800111E7F297C2983121308A20083169115E9
:10030800911D8729842991161116111E8C29892976
:1003180083121308A50083161115111D942991291C
:020328000800CB
:10032A00831203137408003A031DA4297508003ABE
:10033A00031DA429FF30F0007F30F100FD2983124C
:10034A000313FD01F901F80171087004031900345F
:10035A0071087506FA00FA1BFD09FB01F51FBA2997
:10036A00F409F509F40A0319F50AF11FC129F0097C
:10037A00F109F00A0319F10A71087504FA00FA1B67
:10038A00D6290D207B18E929FD1F0034F009F1094F
:10039A00F00A0319F10AF809F909F80A0319F90A1E
:1003AA000034F51FE529F11BE1297108F9007008ED
:1003BA00F800F101F001C929F101F001F00A003455
:1003CA00F109F009FB0AC629F80A0319F90A74089F
:1003DA007802031DC92975087902031DC929F90183
:1003EA00F801F00A0319F10AF11FC9290000FF34C4
:0203FA000800F9
:1003FC00C43083120313A000A101A201A301013098
:10040C00A400A50187018316871203170812031392
:10041C00851283128516831614171530930003204A
:10042C001A30FC00F830FD00FD0B1A2AFC0B1A2ABE
:10043C00000083161114111C242A212AD030831297
:10044C0093008316141D2B2A272A0730831293003E
:10045C008316141D322A2E2A903083129300831691
:10046C00141D392A352A1115111D3D2A3A2A0C2141
:10047C008312071083160714831290141015831619
:10048C000C140B17FF3083128F0020088E000C10F9
:10049C00101440200930B000FF30B1004A200B305E
:1004AC00B0000330B1004A209E200C30B000013067
:1004BC00B1004A2083160514831205141F171F144C
:1004CC000230FC004B30FD00FD0B6A2AFC0B6A2A43
:1004DC009F149F1C722A6F2A0A30B0001E08F0006D
:1004EC000F30F400C6208030F400F501952170081F
:1004FC00B1004A201F1083160317881003138510B0
:10050C0083128514193083169900181598168312C6
:10051C0018168316031709120911831203130610F8
:10052C0083160614831286108316861403309500E6
:10053C007F30810501138B100B1602308312850658
:10054C0063001A30FC00F830FD00FD0BAB2AFC0BED
:10055C00AB2A00008B10023085060C1CBF2A101031
:10056C00FF308F00C4308E000C219E200C10101414
:10057C00462C861C662B1010FF308F00C4308E006A
:10058C000C1040200130B000B1014A200230B00004
:10059C000A30B1004A200330B0000A30B1004A20C2
:1005AC000430B0000A30B1004A20A501A20163005A
:1005BC001A30FC00F830FD00FD0BE22AFC0BE22A9D
:1005CC0000008B108618EC2A0314ED2A0310031C70
:1005DC00022BA40A2408043C0318FC2AAE01DF20D9
:1005EC00831210140130A400A301652BA30124086D
:1005FC00B000B1014A20642B4F2BA30A2308023C04
:10060C000318092BA3012308A500A50D2510A50D82
:10061C002510A50D2510A50D25105F2BA30A250867
:10062C00F100F10CF113F10CF113F10CF113F10CCD
:10063C00F1137108023A031D292B2308033C0318FC
:10064C00292BA3012E2B2308093C03182E2BA301C5
:10065C00F030A5052308A5045F2BA30A2308053C4D
:10066C000318392BA3012308A200A20D2210A20DFE
:10067C002210A20D2210A20D22105F2BA30A230818
:10068C00093C03184A2BA301F030A2052308A2044D
:10069C005F2B2408013A0319032B2408023A03198F
:1006AC00142B2408033A0319332B2408043A031996
:1006BC00442B2408B0002308B1004A20DD2A462C24
:1006CC0010100C1040200130B0000A30B1004A204C
:1006DC000230B0000830B1004A200330B0000830BE
:1006EC00B1004A200430B0000A30B1004A201F1477
:1006FC008B18822B0314832B0310031CA02B0230AA
:10070C00FC004B30FD00FD0B892BFC0B892B9F143F
:10071C009F1C912B8E2B0A30B0001E08F0000F305E
:10072C00F400C6208030F400F50195217008B1006A
:10073C004A207E2B1A30FC00F830FD00FD0BA42B58
:10074C00FC0BA42B00008B101F108618AF2B03146E
:10075C00B02B0310031C3D2C40200130B0000A309C
:10076C00B1004A200230B0000A30B1004A200330F8
:10077C00B0000A30B1004A200430B0000A30B10099
:10078C004A2098170130990083169818CE2BCA2B43
:10079C008B1083128C1ADA2B8B18D62B0314D72BB5
:1007AC000310031CDA2BCF2B8B1CE82B1A30FC000C
:1007BC00F830FD00FD0BE02BFC0BE02B00000C21B6
:1007CC008B103C2C83121A08A5008C1AEE2BEB2BE9
:1007DC001A08A2008C1AF32BF02B7F301A05AA00F2
:1007EC00AB010030AB050030AB000F302A05AC007C
:1007FC002B08AD000030AD052C08A8002D08A90071
:10080C002A08F0002B08F100F10CF00CF113F10C9C
:10081C00F00CF113F10CF00CF113F10CF00CF113D2
:10082C000A30F4000030F50067207008A000710851
:10083C00A1002C08F0072D080318013EF1077008E1
:10084C00A0007108A10070083C3CF0007108031C6A
:10085C00013EF101F1027008FF3CA0007108031C7D
:10086C00013EA101A1022A08AE00DF203E2C0C2182
:10087C00FF3083128F0020088E000C1010149E2065
:04088C00A32A472C28
:04400E00F42F000784
:00000001FF
